{"abi":[{"type":"function","name":"balanceOf","inputs":[{"name":"_owner","type":"address","internalType":"address"}],"outputs":[{"name":"","type":"uint256","internalType":"uint256"}],"stateMutability":"view"},{"type":"function","name":"decimals","inputs":[],"outputs":[{"name":"","type":"uint8","internalType":"uint8"}],"stateMutability":"pure"},{"type":"function","name":"name","inputs":[],"outputs":[{"name":"","type":"string","internalType":"string"}],"stateMutability":"view"},{"type":"function","name":"totalSupply","inputs":[],"outputs":[{"name":"","type":"uint256","internalType":"uint256"}],"stateMutability":"pure"},{"type":"function","name":"transfer","inputs":[{"name":"_to","type":"address","internalType":"address"},{"name":"_amount","type":"uint256","internalType":"uint256"}],"outputs":[],"stateMutability":"nonpayable"}],"bytecode":{"object":"0x6080604052348015600f57600080fd5b506106f38061001f6000396000f3fe608060405234801561001057600080fd5b50600436106100575760003560e01c806306fdde031461005c57806318160ddd1461007a578063313ce5671461009857806370a08231146100b6578063a9059cbb146100e6575b600080fd5b610064610102565b6040516100719190610431565b60405180910390f35b61008261013b565b60405161008f919061046c565b60405180910390f35b6100a061014c565b6040516100ad91906104a3565b60405180910390f35b6100d060048036038101906100cb9190610521565b610155565b6040516100dd919061046c565b60405180910390f35b61010060048036038101906100fb919061057a565b61019d565b005b6040518060400160405280600881526020017f4d7920546f6b656e00000000000000000000000000000000000000000000000081525081565b600068056bc75e2d63100000905090565b60006012905090565b60008060008373ffffffffffffffffffffffffffffffffffffffff1673ffffffffffffffffffffffffffffffffffffffff168152602001908152602001600020549050919050565b60008060008473ffffffffffffffffffffffffffffffffffffffff1673ffffffffffffffffffffffffffffffffffffffff168152602001908152602001600020546000803373ffffffffffffffffffffffffffffffffffffffff1673ffffffffffffffffffffffffffffffffffffffff1681526020019081526020016000205461022791906105e9565b9050816000803373ffffffffffffffffffffffffffffffffffffffff1673ffffffffffffffffffffffffffffffffffffffff1681526020019081526020016000206000828254610277919061061d565b92505081905550816000808573ffffffffffffffffffffffffffffffffffffffff1673ffffffffffffffffffffffffffffffffffffffff16815260200190815260200160002060008282546102cc91906105e9565b925050819055506000803373ffffffffffffffffffffffffffffffffffffffff1673ffffffffffffffffffffffffffffffffffffffff168152602001908152602001600020546000808573ffffffffffffffffffffffffffffffffffffffff1673ffffffffffffffffffffffffffffffffffffffff1681526020019081526020016000205461035b91906105e9565b811461039c576040517f08c379a00000000000000000000000000000000000000000000000000000000081526004016103939061069d565b60405180910390fd5b505050565b600081519050919050565b600082825260208201905092915050565b60005b838110156103db5780820151818401526020810190506103c0565b60008484015250505050565b6000601f19601f8301169050919050565b6000610403826103a1565b61040d81856103ac565b935061041d8185602086016103bd565b610426816103e7565b840191505092915050565b6000602082019050818103600083015261044b81846103f8565b905092915050565b6000819050919050565b61046681610453565b82525050565b6000602082019050610481600083018461045d565b92915050565b600060ff82169050919050565b61049d81610487565b82525050565b60006020820190506104b86000830184610494565b92915050565b600080fd5b600073ffffffffffffffffffffffffffffffffffffffff82169050919050565b60006104ee826104c3565b9050919050565b6104fe816104e3565b811461050957600080fd5b50565b60008135905061051b816104f5565b92915050565b600060208284031215610537576105366104be565b5b60006105458482850161050c565b91505092915050565b61055781610453565b811461056257600080fd5b50565b6000813590506105748161054e565b92915050565b60008060408385031215610591576105906104be565b5b600061059f8582860161050c565b92505060206105b085828601610565565b9150509250929050565b7f4e487b7100000000000000000000000000000000000000000000000000000000600052601160045260246000fd5b60006105f482610453565b91506105ff83610453565b9250828201905080821115610617576106166105ba565b5b92915050565b600061062882610453565b915061063383610453565b925082820390508181111561064b5761064a6105ba565b5b92915050565b7f5472616e73666572204661696c65640000000000000000000000000000000000600082015250565b6000610687600f836103ac565b915061069282610651565b602082019050919050565b600060208201905081810360008301526106b68161067a565b905091905056fea2646970667358221220431b3e568804fc9430f4faa5c8367d67e00e9fcc36c377f0763b5d1153253ece64736f6c634300081b0033","linkReferences":{}},"methodIdentifiers":{"balanceOf(address)":"70a08231","decimals()":"313ce567","name()":"06fdde03","totalSupply()":"18160ddd","transfer(address,uint256)":"a9059cbb"},"id":30}